{
  "contractName": "WNS",
  "abi": [
    {
      "constant": true,
      "inputs": [
        {
          "name": "",
          "type": "address"
        }
      ],
      "name": "superUsers",
      "outputs": [
        {
          "name": "",
          "type": "bool"
        }
      ],
      "payable": false,
      "stateMutability": "view",
      "type": "function"
    },
    {
      "inputs": [
        {
          "name": "_superUsers",
          "type": "address[]"
        }
      ],
      "payable": false,
      "stateMutability": "nonpayable",
      "type": "constructor"
    },
    {
      "anonymous": false,
      "inputs": [
        {
          "indexed": false,
          "name": "handle",
          "type": "string"
        },
        {
          "indexed": false,
          "name": "peerId",
          "type": "string"
        },
        {
          "indexed": true,
          "name": "owner",
          "type": "address"
        }
      ],
      "name": "NewHandle",
      "type": "event"
    },
    {
      "anonymous": false,
      "inputs": [
        {
          "indexed": false,
          "name": "handle",
          "type": "string"
        },
        {
          "indexed": false,
          "name": "displayName",
          "type": "string"
        }
      ],
      "name": "NewDisplayName",
      "type": "event"
    },
    {
      "anonymous": false,
      "inputs": [
        {
          "indexed": false,
          "name": "handle",
          "type": "string"
        },
        {
          "indexed": false,
          "name": "imageLocation",
          "type": "string"
        }
      ],
      "name": "NewImageLocation",
      "type": "event"
    },
    {
      "anonymous": false,
      "inputs": [
        {
          "indexed": false,
          "name": "handle",
          "type": "string"
        },
        {
          "indexed": false,
          "name": "peerId",
          "type": "string"
        }
      ],
      "name": "NewPeerId",
      "type": "event"
    },
    {
      "anonymous": false,
      "inputs": [
        {
          "indexed": false,
          "name": "handle",
          "type": "string"
        },
        {
          "indexed": true,
          "name": "newOwner",
          "type": "address"
        }
      ],
      "name": "OwnershipTransferred",
      "type": "event"
    },
    {
      "anonymous": false,
      "inputs": [
        {
          "indexed": false,
          "name": "handle",
          "type": "string"
        }
      ],
      "name": "HandleRemoved",
      "type": "event"
    },
    {
      "constant": false,
      "inputs": [
        {
          "name": "owner",
          "type": "address"
        },
        {
          "name": "handle",
          "type": "string"
        },
        {
          "name": "_displayName",
          "type": "string"
        },
        {
          "name": "_imageLocation",
          "type": "string"
        },
        {
          "name": "_peerId",
          "type": "string"
        }
      ],
      "name": "addHandle",
      "outputs": [],
      "payable": false,
      "stateMutability": "nonpayable",
      "type": "function"
    },
    {
      "constant": false,
      "inputs": [
        {
          "name": "handle",
          "type": "string"
        },
        {
          "name": "_displayName",
          "type": "string"
        },
        {
          "name": "_imageLocation",
          "type": "string"
        },
        {
          "name": "_peerId",
          "type": "string"
        }
      ],
      "name": "createHandle",
      "outputs": [],
      "payable": false,
      "stateMutability": "nonpayable",
      "type": "function"
    },
    {
      "constant": false,
      "inputs": [
        {
          "name": "handle",
          "type": "string"
        },
        {
          "name": "newOwner",
          "type": "address"
        }
      ],
      "name": "transferOwnership",
      "outputs": [],
      "payable": false,
      "stateMutability": "nonpayable",
      "type": "function"
    },
    {
      "constant": false,
      "inputs": [
        {
          "name": "handle",
          "type": "string"
        },
        {
          "name": "newName",
          "type": "string"
        }
      ],
      "name": "changeDisplayName",
      "outputs": [],
      "payable": false,
      "stateMutability": "nonpayable",
      "type": "function"
    },
    {
      "constant": false,
      "inputs": [
        {
          "name": "handle",
          "type": "string"
        },
        {
          "name": "newImageLocation",
          "type": "string"
        }
      ],
      "name": "changeImageLocation",
      "outputs": [],
      "payable": false,
      "stateMutability": "nonpayable",
      "type": "function"
    },
    {
      "constant": false,
      "inputs": [
        {
          "name": "handle",
          "type": "string"
        },
        {
          "name": "peerId",
          "type": "string"
        }
      ],
      "name": "changePeerId",
      "outputs": [],
      "payable": false,
      "stateMutability": "nonpayable",
      "type": "function"
    },
    {
      "constant": true,
      "inputs": [
        {
          "name": "handleName",
          "type": "string"
        }
      ],
      "name": "getHandleInfo",
      "outputs": [
        {
          "name": "owner",
          "type": "address"
        },
        {
          "name": "handle",
          "type": "string"
        },
        {
          "name": "displayName",
          "type": "string"
        },
        {
          "name": "imageLocation",
          "type": "string"
        },
        {
          "name": "peerId",
          "type": "string"
        }
      ],
      "payable": false,
      "stateMutability": "view",
      "type": "function"
    },
    {
      "constant": true,
      "inputs": [
        {
          "name": "handle",
          "type": "string"
        }
      ],
      "name": "isHandleAvailable",
      "outputs": [
        {
          "name": "",
          "type": "bool"
        }
      ],
      "payable": false,
      "stateMutability": "view",
      "type": "function"
    },
    {
      "constant": false,
      "inputs": [
        {
          "name": "handle",
          "type": "string"
        }
      ],
      "name": "removeHandle",
      "outputs": [],
      "payable": false,
      "stateMutability": "nonpayable",
      "type": "function"
    }
  ],
  "bytecode": "0x608060405234801561001057600080fd5b506040516200312a3803806200312a8339810180604052810190808051820192919050505060008090505b81518110156100bf576001806000848481518110151561005757fe5b9060200190602002015173ffffffffffffffffffffffffffffffffffffffff1673ffffffffffffffffffffffffffffffffffffffff16815260200190815260200160002060006101000a81548160ff021916908315150217905550808060010191505061003b565b505061305980620000d16000396000f3006080604052600436106100a4576000357c0100000000000000000000000000000000000000000000000000000000900463ffffffff168063278af122146100a957806331fb7e34146100fc57806351c8338a1461017f578063590236e9146101d2578063654dcefa146102755780638c1efee1146102d057806392791e0a146103235780639be40ed61461035e578063ae3fc1a314610589578063c0e793c2146105dc575b600080fd5b3480156100b557600080fd5b506100fa600480360381019080803590602001908201803590602001919091929391929390803590602001908201803590602001919091929391929390505050610637565b005b34801561010857600080fd5b5061017d600480360381019080803590602001908201803590602001919091929391929390803590602001908201803590602001919091929391929390803590602001908201803590602001919091929391929390803590602001908201803590602001919091929391929390505050610ba6565b005b34801561018b57600080fd5b506101d0600480360381019080803590602001908201803590602001919091929391929390803590602001908201803590602001919091929391929390505050610c85565b005b3480156101de57600080fd5b50610273600480360381019080803573ffffffffffffffffffffffffffffffffffffffff169060200190929190803590602001908201803590602001919091929391929390803590602001908201803590602001919091929391929390803590602001908201803590602001919091929391929390803590602001908201803590602001919091929391929390505050611179565b005b34801561028157600080fd5b506102b6600480360381019080803573ffffffffffffffffffffffffffffffffffffffff1690602001909291905050506113c1565b604051808215151515815260200191505060405180910390f35b3480156102dc57600080fd5b506103096004803603810190808035906020019082018035906020019190919293919293905050506113e1565b604051808215151515815260200191505060405180910390f35b34801561032f57600080fd5b5061035c6004803603810190808035906020019082018035906020019190919293919293905050506114df565b005b34801561036a57600080fd5b50610397600480360381019080803590602001908201803590602001919091929391929390505050611a06565b604051808673ffffffffffffffffffffffffffffffffffffffff1673ffffffffffffffffffffffffffffffffffffffff16815260200180602001806020018060200180602001858103855289818151815260200191508051906020019080838360005b838110156104155780820151818401526020810190506103fa565b50505050905090810190601f1680156104425780820380516001836020036101000a031916815260200191505b50858103845288818151815260200191508051906020019080838360005b8381101561047b578082015181840152602081019050610460565b50505050905090810190601f1680156104a85780820380516001836020036101000a031916815260200191505b50858103835287818151815260200191508051906020019080838360005b838110156104e15780820151818401526020810190506104c6565b50505050905090810190601f16801561050e5780820380516001836020036101000a031916815260200191505b50858103825286818151815260200191508051906020019080838360005b8381101561054757808201518184015260208101905061052c565b50505050905090810190601f1680156105745780820380516001836020036101000a031916815260200191505b50995050505050505050505060405180910390f35b34801561059557600080fd5b506105da600480360381019080803590602001908201803590602001919091929391929390803590602001908201803590602001919091929391929390505050611dc6565b005b3480156105e857600080fd5b50610635600480360381019080803590602001908201803590602001919091929391929390803573ffffffffffffffffffffffffffffffffffffffff1690602001909291905050506122ba565b005b83838080601f016020809104026020016040519081016040528093929190818152602001838380828437820191505050505050600073ffffffffffffffffffffffffffffffffffffffff16600080836040516020018082805190602001908083835b6020831015156106be5780518252602082019150602081019050602083039250610699565b6001836020036101000a0380198251168184511680821785525050505050509050019150506040516020818303038152906040526040518082805190602001908083835b6020831015156107275780518252602082019150602081019050602083039250610702565b6001836020036101000a03801982511681845116808217855250505050505090500191505060405180910390206000191660001916815260200190815260200160002060000160009054906101000a900473ffffffffffffffffffffffffffffffffffffffff1673ffffffffffffffffffffffffffffffffffffffff161415151561081a576040517f08c379a00000000000000000000000000000000000000000000000000000000081526004018080602001828103825260168152602001807f48616e646c6520646f6573206e6f74206578697374730000000000000000000081525060200191505060405180910390fd5b84848080601f0160208091040260200160405190810160405280939291908181526020018383808284378201915050505050503373ffffffffffffffffffffffffffffffffffffffff16600080836040516020018082805190602001908083835b6020831015156108a0578051825260208201915060208101905060208303925061087b565b6001836020036101000a0380198251168184511680821785525050505050509050019150506040516020818303038152906040526040518082805190602001908083835b60208310151561090957805182526020820191506020810190506020830392506108e4565b6001836020036101000a03801982511681845116808217855250505050505090500191505060405180910390206000191660001916815260200190815260200160002060000160009054906101000a900473ffffffffffffffffffffffffffffffffffffffff1673ffffffffffffffffffffffffffffffffffffffff161415156109fb576040517f08c379a000000000000000000000000000000000000000000000000000000000815260040180806020018281038252601d8152602001807f556e617574686f72697a65642061636365737320746f2048616e646c6500000081525060200191505060405180910390fd5b600084849050111515610a76576040517f08c379a00000000000000000000000000000000000000000000000000000000081526004018080602001828103825260178152602001807f456d707974206e616d6573206e6f7420616c6c6f77656400000000000000000081525060200191505060405180910390fd5b83836000808989604051602001808383808284378201915050925050506040516020818303038152906040526040518082805190602001908083835b602083101515610ad75780518252602082019150602081019050602083039250610ab2565b6001836020036101000a0380198251168184511680821785525050505050509050019150506040518091039020600019166000191681526020019081526020016000206002019190610b2a929190612ec0565b507fe1e8ee041e85b13e71bd1ddc5fc2aed68cdf86be95e141fe6597e6e7c8e32976868686866040518080602001806020018381038352878782818152602001925080828437820191505083810382528585828181526020019250808284378201915050965050505050505060405180910390a1505050505050565b610c7b3389898080601f01602080910402602001604051908101604052809392919081815260200183838082843782019150505050505088888080601f01602080910402602001604051908101604052809392919081815260200183838082843782019150505050505087878080601f01602080910402602001604051908101604052809392919081815260200183838082843782019150505050505086868080601f016020809104026020016040519081016040528093929190818152602001838380828437820191505050505050612985565b5050505050505050565b83838080601f016020809104026020016040519081016040528093929190818152602001838380828437820191505050505050600073ffffffffffffffffffffffffffffffffffffffff16600080836040516020018082805190602001908083835b602083101515610d0c5780518252602082019150602081019050602083039250610ce7565b6001836020036101000a0380198251168184511680821785525050505050509050019150506040516020818303038152906040526040518082805190602001908083835b602083101515610d755780518252602082019150602081019050602083039250610d50565b6001836020036101000a03801982511681845116808217855250505050505090500191505060405180910390206000191660001916815260200190815260200160002060000160009054906101000a900473ffffffffffffffffffffffffffffffffffffffff1673ffffffffffffffffffffffffffffffffffffffff1614151515610e68576040517f08c379a00000000000000000000000000000000000000000000000000000000081526004018080602001828103825260168152602001807f48616e646c6520646f6573206e6f74206578697374730000000000000000000081525060200191505060405180910390fd5b84848080601f0160208091040260200160405190810160405280939291908181526020018383808284378201915050505050503373ffffffffffffffffffffffffffffffffffffffff16600080836040516020018082805190602001908083835b602083101515610eee5780518252602082019150602081019050602083039250610ec9565b6001836020036101000a0380198251168184511680821785525050505050509050019150506040516020818303038152906040526040518082805190602001908083835b602083101515610f575780518252602082019150602081019050602083039250610f32565b6001836020036101000a03801982511681845116808217855250505050505090500191505060405180910390206000191660001916815260200190815260200160002060000160009054906101000a900473ffffffffffffffffffffffffffffffffffffffff1673ffffffffffffffffffffffffffffffffffffffff16141515611049576040517f08c379a000000000000000000000000000000000000000000000000000000000815260040180806020018281038252601d8152602001807f556e617574686f72697a65642061636365737320746f2048616e646c6500000081525060200191505060405180910390fd5b83836000808989604051602001808383808284378201915050925050506040516020818303038152906040526040518082805190602001908083835b6020831015156110aa5780518252602082019150602081019050602083039250611085565b6001836020036101000a03801982511681845116808217855250505050505090500191505060405180910390206000191660001916815260200190815260200160002060040191906110fd929190612ec0565b507fbb7808991af84d962c66af559a394fb633aaf7722582c639e3bcf60a8ad1c837868686866040518080602001806020018381038352878782818152602001925080828437820191505083810382528585828181526020019250808284378201915050965050505050505060405180910390a1505050505050565b600160003373ffffffffffffffffffffffffffffffffffffffff1673ffffffffffffffffffffffffffffffffffffffff16815260200190815260200160002060009054906101000a900460ff16151561123a576040517f08c379a00000000000000000000000000000000000000000000000000000000081526004018080602001828103825260108152602001807f4e6f74206120737570657220757365720000000000000000000000000000000081525060200191505060405180910390fd5b88600073ffffffffffffffffffffffffffffffffffffffff168173ffffffffffffffffffffffffffffffffffffffff16141515156112e0576040517f08c379a000000000000000000000000000000000000000000000000000000000815260040180806020018281038252600e8152602001807f3020616464726573732073656e7400000000000000000000000000000000000081525060200191505060405180910390fd5b6113b58a8a8a8080601f01602080910402602001604051908101604052809392919081815260200183838082843782019150505050505089898080601f01602080910402602001604051908101604052809392919081815260200183838082843782019150505050505088888080601f01602080910402602001604051908101604052809392919081815260200183838082843782019150505050505087878080601f016020809104026020016040519081016040528093929190818152602001838380828437820191505050505050612985565b50505050505050505050565b60016020528060005260406000206000915054906101000a900460ff1681565b60008073ffffffffffffffffffffffffffffffffffffffff166000808585604051602001808383808284378201915050925050506040516020818303038152906040526040518082805190602001908083835b6020831015156114595780518252602082019150602081019050602083039250611434565b6001836020036101000a03801982511681845116808217855250505050505090500191505060405180910390206000191660001916815260200190815260200160002060000160009054906101000a900473ffffffffffffffffffffffffffffffffffffffff1673ffffffffffffffffffffffffffffffffffffffff1614905092915050565b81818080601f016020809104026020016040519081016040528093929190818152602001838380828437820191505050505050600073ffffffffffffffffffffffffffffffffffffffff16600080836040516020018082805190602001908083835b6020831015156115665780518252602082019150602081019050602083039250611541565b6001836020036101000a0380198251168184511680821785525050505050509050019150506040516020818303038152906040526040518082805190602001908083835b6020831015156115cf57805182526020820191506020810190506020830392506115aa565b6001836020036101000a03801982511681845116808217855250505050505090500191505060405180910390206000191660001916815260200190815260200160002060000160009054906101000a900473ffffffffffffffffffffffffffffffffffffffff1673ffffffffffffffffffffffffffffffffffffffff16141515156116c2576040517f08c379a00000000000000000000000000000000000000000000000000000000081526004018080602001828103825260168152602001807f48616e646c6520646f6573206e6f74206578697374730000000000000000000081525060200191505060405180910390fd5b82828080601f0160208091040260200160405190810160405280939291908181526020018383808284378201915050505050503373ffffffffffffffffffffffffffffffffffffffff16600080836040516020018082805190602001908083835b6020831015156117485780518252602082019150602081019050602083039250611723565b6001836020036101000a0380198251168184511680821785525050505050509050019150506040516020818303038152906040526040518082805190602001908083835b6020831015156117b1578051825260208201915060208101905060208303925061178c565b6001836020036101000a03801982511681845116808217855250505050505090500191505060405180910390206000191660001916815260200190815260200160002060000160009054906101000a900473ffffffffffffffffffffffffffffffffffffffff1673ffffffffffffffffffffffffffffffffffffffff161415156118a3576040517f08c379a000000000000000000000000000000000000000000000000000000000815260040180806020018281038252601d8152602001807f556e617574686f72697a65642061636365737320746f2048616e646c6500000081525060200191505060405180910390fd5b6000808585604051602001808383808284378201915050925050506040516020818303038152906040526040518082805190602001908083835b60208310151561190257805182526020820191506020810190506020830392506118dd565b6001836020036101000a038019825116818451168082178552505050505050905001915050604051809103902060001916600019168152602001908152602001600020600080820160006101000a81549073ffffffffffffffffffffffffffffffffffffffff021916905560018201600061197d9190612f40565b60028201600061198d9190612f40565b60038201600061199d9190612f40565b6004820160006119ad9190612f40565b50507f22c728ed9cd2aa0234885bf19aa18a87367098caf1a10d7bad373a36af7ab1298484604051808060200182810382528484828181526020019250808284378201915050935050505060405180910390a150505050565b600060608060608060008787604051602001808383808284378201915050925050506040516020818303038152906040526040518082805190602001908083835b602083101515611a6c5780518252602082019150602081019050602083039250611a47565b6001836020036101000a03801982511681845116808217855250505050505090500191505060405180910390209050600080826000191660001916815260200190815260200160002060000160009054906101000a900473ffffffffffffffffffffffffffffffffffffffff16955060008082600019166000191681526020019081526020016000206001018054600181600116156101000203166002900480601f016020809104026020016040519081016040528092919081815260200182805460018160011615610100020316600290048015611b8c5780601f10611b6157610100808354040283529160200191611b8c565b820191906000526020600020905b815481529060010190602001808311611b6f57829003601f168201915b5050505050945060008082600019166000191681526020019081526020016000206002018054600181600116156101000203166002900480601f016020809104026020016040519081016040528092919081815260200182805460018160011615610100020316600290048015611c445780601f10611c1957610100808354040283529160200191611c44565b820191906000526020600020905b815481529060010190602001808311611c2757829003601f168201915b5050505050935060008082600019166000191681526020019081526020016000206003018054600181600116156101000203166002900480601f016020809104026020016040519081016040528092919081815260200182805460018160011615610100020316600290048015611cfc5780601f10611cd157610100808354040283529160200191611cfc565b820191906000526020600020905b815481529060010190602001808311611cdf57829003601f168201915b5050505050925060008082600019166000191681526020019081526020016000206004018054600181600116156101000203166002900480601f016020809104026020016040519081016040528092919081815260200182805460018160011615610100020316600290048015611db45780601f10611d8957610100808354040283529160200191611db4565b820191906000526020600020905b815481529060010190602001808311611d9757829003601f168201915b50505050509150509295509295909350565b83838080601f016020809104026020016040519081016040528093929190818152602001838380828437820191505050505050600073ffffffffffffffffffffffffffffffffffffffff16600080836040516020018082805190602001908083835b602083101515611e4d5780518252602082019150602081019050602083039250611e28565b6001836020036101000a0380198251168184511680821785525050505050509050019150506040516020818303038152906040526040518082805190602001908083835b602083101515611eb65780518252602082019150602081019050602083039250611e91565b6001836020036101000a03801982511681845116808217855250505050505090500191505060405180910390206000191660001916815260200190815260200160002060000160009054906101000a900473ffffffffffffffffffffffffffffffffffffffff1673ffffffffffffffffffffffffffffffffffffffff1614151515611fa9576040517f08c379a00000000000000000000000000000000000000000000000000000000081526004018080602001828103825260168152602001807f48616e646c6520646f6573206e6f74206578697374730000000000000000000081525060200191505060405180910390fd5b84848080601f0160208091040260200160405190810160405280939291908181526020018383808284378201915050505050503373ffffffffffffffffffffffffffffffffffffffff16600080836040516020018082805190602001908083835b60208310151561202f578051825260208201915060208101905060208303925061200a565b6001836020036101000a0380198251168184511680821785525050505050509050019150506040516020818303038152906040526040518082805190602001908083835b6020831015156120985780518252602082019150602081019050602083039250612073565b6001836020036101000a03801982511681845116808217855250505050505090500191505060405180910390206000191660001916815260200190815260200160002060000160009054906101000a900473ffffffffffffffffffffffffffffffffffffffff1673ffffffffffffffffffffffffffffffffffffffff1614151561218a576040517f08c379a000000000000000000000000000000000000000000000000000000000815260040180806020018281038252601d8152602001807f556e617574686f72697a65642061636365737320746f2048616e646c6500000081525060200191505060405180910390fd5b83836000808989604051602001808383808284378201915050925050506040516020818303038152906040526040518082805190602001908083835b6020831015156121eb57805182526020820191506020810190506020830392506121c6565b6001836020036101000a038019825116818451168082178552505050505050905001915050604051809103902060001916600019168152602001908152602001600020600301919061223e929190612ec0565b507f2e7598835193fe26916c4323aa7bef6031a9cb1eee8a77f4bf014dfdc9098d2b868686866040518080602001806020018381038352878782818152602001925080828437820191505083810382528585828181526020019250808284378201915050965050505050505060405180910390a1505050505050565b600083838080601f016020809104026020016040519081016040528093929190818152602001838380828437820191505050505050600073ffffffffffffffffffffffffffffffffffffffff16600080836040516020018082805190602001908083835b602083101515612343578051825260208201915060208101905060208303925061231e565b6001836020036101000a0380198251168184511680821785525050505050509050019150506040516020818303038152906040526040518082805190602001908083835b6020831015156123ac5780518252602082019150602081019050602083039250612387565b6001836020036101000a03801982511681845116808217855250505050505090500191505060405180910390206000191660001916815260200190815260200160002060000160009054906101000a900473ffffffffffffffffffffffffffffffffffffffff1673ffffffffffffffffffffffffffffffffffffffff161415151561249f576040517f08c379a00000000000000000000000000000000000000000000000000000000081526004018080602001828103825260168152602001807f48616e646c6520646f6573206e6f74206578697374730000000000000000000081525060200191505060405180910390fd5b84848080601f0160208091040260200160405190810160405280939291908181526020018383808284378201915050505050503373ffffffffffffffffffffffffffffffffffffffff16600080836040516020018082805190602001908083835b6020831015156125255780518252602082019150602081019050602083039250612500565b6001836020036101000a0380198251168184511680821785525050505050509050019150506040516020818303038152906040526040518082805190602001908083835b60208310151561258e5780518252602082019150602081019050602083039250612569565b6001836020036101000a03801982511681845116808217855250505050505090500191505060405180910390206000191660001916815260200190815260200160002060000160009054906101000a900473ffffffffffffffffffffffffffffffffffffffff1673ffffffffffffffffffffffffffffffffffffffff16141515612680576040517f08c379a000000000000000000000000000000000000000000000000000000000815260040180806020018281038252601d8152602001807f556e617574686f72697a65642061636365737320746f2048616e646c6500000081525060200191505060405180910390fd5b83600073ffffffffffffffffffffffffffffffffffffffff168173ffffffffffffffffffffffffffffffffffffffff1614151515612726576040517f08c379a000000000000000000000000000000000000000000000000000000000815260040180806020018281038252600e8152602001807f3020616464726573732073656e7400000000000000000000000000000000000081525060200191505060405180910390fd5b8686604051602001808383808284378201915050925050506040516020818303038152906040526040518082805190602001908083835b602083101515612782578051825260208201915060208101905060208303925061275d565b6001836020036101000a03801982511681845116808217855250505050505090500191505060405180910390209350600080856000191660001916815260200190815260200160002060000160009054906101000a900473ffffffffffffffffffffffffffffffffffffffff1673ffffffffffffffffffffffffffffffffffffffff168573ffffffffffffffffffffffffffffffffffffffff16141515156128b8576040517f08c379a00000000000000000000000000000000000000000000000000000000081526004018080602001828103825260238152602001807f4e6577206f776e65722069732073616d652061732070726576696f7573206f7781526020017f6e6572000000000000000000000000000000000000000000000000000000000081525060400191505060405180910390fd5b84600080866000191660001916815260200190815260200160002060000160006101000a81548173ffffffffffffffffffffffffffffffffffffffff021916908373ffffffffffffffffffffffffffffffffffffffff1602179055508473ffffffffffffffffffffffffffffffffffffffff167f6d82ace1ded9997251e5a150555aeb78d9d890a0d3170f41385af11b46c0973f8888604051808060200182810382528484828181526020019250808284378201915050935050505060405180910390a250505050505050565b600084600073ffffffffffffffffffffffffffffffffffffffff16600080836040516020018082805190602001908083835b6020831015156129dc57805182526020820191506020810190506020830392506129b7565b6001836020036101000a0380198251168184511680821785525050505050509050019150506040516020818303038152906040526040518082805190602001908083835b602083101515612a455780518252602082019150602081019050602083039250612a20565b6001836020036101000a03801982511681845116808217855250505050505090500191505060405180910390206000191660001916815260200190815260200160002060000160009054906101000a900473ffffffffffffffffffffffffffffffffffffffff1673ffffffffffffffffffffffffffffffffffffffff16141515612b37576040517f08c379a00000000000000000000000000000000000000000000000000000000081526004018080602001828103825260178152602001807f48616e646c6520697320616c72656164792074616b656e00000000000000000081525060200191505060405180910390fd5b60008651111515612bb0576040517f08c379a000000000000000000000000000000000000000000000000000000000815260040180806020018281038252601a8152602001807f456d7074792068616e646c65206e616d652070726f766964656400000000000081525060200191505060405180910390fd5b856040516020018082805190602001908083835b602083101515612be95780518252602082019150602081019050602083039250612bc4565b6001836020036101000a0380198251168184511680821785525050505050509050019150506040516020818303038152906040526040518082805190602001908083835b602083101515612c525780518252602082019150602081019050602083039250612c2d565b6001836020036101000a0380198251168184511680821785525050505050509050019150506040518091039020915060a0604051908101604052808873ffffffffffffffffffffffffffffffffffffffff16815260200187815260200186815260200185815260200184815250600080846000191660001916815260200190815260200160002060008201518160000160006101000a81548173ffffffffffffffffffffffffffffffffffffffff021916908373ffffffffffffffffffffffffffffffffffffffff1602179055506020820151816001019080519060200190612d3c929190612f88565b506040820151816002019080519060200190612d59929190612f88565b506060820151816003019080519060200190612d76929190612f88565b506080820151816004019080519060200190612d93929190612f88565b509050508673ffffffffffffffffffffffffffffffffffffffff167f78849a4cd43e4d96aab058ca8357a916c9dd85f9f7c33b155b4cab1464e864788785604051808060200180602001838103835285818151815260200191508051906020019080838360005b83811015612e15578082015181840152602081019050612dfa565b50505050905090810190601f168015612e425780820380516001836020036101000a031916815260200191505b50838103825284818151815260200191508051906020019080838360005b83811015612e7b578082015181840152602081019050612e60565b50505050905090810190601f168015612ea85780820380516001836020036101000a031916815260200191505b5094505050505060405180910390a250505050505050565b828054600181600116156101000203166002900490600052602060002090601f016020900481019282601f10612f0157803560ff1916838001178555612f2f565b82800160010185558215612f2f579182015b82811115612f2e578235825591602001919060010190612f13565b5b509050612f3c9190613008565b5090565b50805460018160011615610100020316600290046000825580601f10612f665750612f85565b601f016020900490600052602060002090810190612f849190613008565b5b50565b828054600181600116156101000203166002900490600052602060002090601f016020900481019282601f10612fc957805160ff1916838001178555612ff7565b82800160010185558215612ff7579182015b82811115612ff6578251825591602001919060010190612fdb565b5b5090506130049190613008565b5090565b61302a91905b8082111561302657600081600090555060010161300e565b5090565b905600a165627a7a723058202e3758a410db37c7fec1c39978f7081e539dc0c733acfc35accb71ada36fc1a30029",
  "source": "pragma solidity 0.4.24;\n\ncontract WNS {\n    \n    struct Handle{\n\n        address handleOwner;//Owner of the handle\n        string handleName;//This should be unqiue in nature\n        string displayName;//Need not to be unqiue\n        string imageLocation;//Can be an URI or IPNS address\n        string peerId;//OB peerId\n\n    }\n    \n    mapping(bytes32=>Handle) handleNameHashVsHandle;//Unique handle hash versus Handle\n    \n    mapping(address=>bool) public superUsers;//addresses who are allowed to handles on other user's behalf\n\n    event NewHandle(string handle, string peerId, address indexed owner);\n    \n    event NewDisplayName(string handle, string displayName);\n    \n    event NewImageLocation(string handle, string imageLocation);\n    \n    event NewPeerId(string handle, string peerId);\n    \n    event OwnershipTransferred(string handle, address indexed newOwner);\n    \n    event HandleRemoved(string handle);\n\n    modifier onlyHandleOwner(string handle){\n        require(handleNameHashVsHandle[keccak256(abi.encodePacked(handle))].handleOwner == msg.sender, \"Unauthorized access to Handle\");\n        _;\n    }\n    \n    modifier handleExists(string handle){\n        require(handleNameHashVsHandle[keccak256(abi.encodePacked(handle))].handleOwner != address(0), \"Handle does not exists\");\n        _;\n    }\n    \n    modifier handleAvailable(string handle){\n        require(handleNameHashVsHandle[keccak256(abi.encodePacked(handle))].handleOwner == address(0), \"Handle is already taken\");\n        _;\n    }\n    \n    modifier nonZeroAddress(address _address){\n        require(_address != address(0), \"0 address sent\");\n        _;\n    }\n\n    modifier onlySuperUser(){\n        require(superUsers[msg.sender], \"Not a super user\");\n        _;\n    }\n    \n    constructor(address[] _superUsers)public {\n\n        for(uint i = 0;i<_superUsers.length;i++){\n\n            superUsers[_superUsers[i]] = true;\n\n        }\n    }\n\n    /** \n    * @dev Allows super user to add handle on other user's behalf\n    * @param owner The address of the owner\n    * @param handle Unique Handle\n    * @param _displayName Display name of the entity\n    * @param _imageLocation URI or IPNS of the image\n    * @param _peerId OB peer id\n    */\n    function addHandle(address owner, string handle, string _displayName, string _imageLocation, string _peerId)external\n     onlySuperUser nonZeroAddress(owner){\n\n        _createHandle(owner, handle, _displayName, _imageLocation, _peerId);\n    }\n\n    /** \n    * @dev Method to create new handle\n    * @param handle Unique Handle\n    * @param _displayName Display name of the entity\n    * @param _imageLocation URI or IPNS of the image\n    * @param _peerId OB peer id\n    */\n    function createHandle(string handle, string _displayName, string _imageLocation, string _peerId)external {\n\n        _createHandle(msg.sender, handle, _displayName, _imageLocation, _peerId);\n       \n    }\n\n    //helper method to add/create new handle in the contract\n    function _createHandle(address owner, string handle, string _displayName, string _imageLocation, string _peerId)private\n     handleAvailable(handle) {\n\n        require(bytes(handle).length>0, \"Empty handle name provided\");\n\n        bytes32 handleHash = keccak256(abi.encodePacked(handle));\n                \n        handleNameHashVsHandle[handleHash] = Handle({\n            handleOwner:owner,\n            handleName:handle,\n            displayName:_displayName,\n            imageLocation:_imageLocation,\n            peerId:_peerId\n        });\n                \n        emit NewHandle(handle, _peerId, owner);\n    }\n    \n    /** \n    * @dev Transfer handle ownership to new address\n    * @param handle Handle whose ownership has to be changed\n    * @param newOwner Address of the new owner\n    */\n    function transferOwnership(string handle, address newOwner)external\n     handleExists(handle) onlyHandleOwner(handle) nonZeroAddress(newOwner){\n         \n        bytes32 handleHash = keccak256(abi.encodePacked(handle));\n\n        require(newOwner != handleNameHashVsHandle[handleHash].handleOwner, \"New owner is same as previous owner\");\n        \n        handleNameHashVsHandle[handleHash].handleOwner = newOwner;\n        \n        emit OwnershipTransferred(handle, newOwner);\n        \n    }\n    \n    /** \n    * @dev Method to change display name of the entity\n    * @param handle Handle whose display name has to be changed\n    * @param newName New Display Name\n    */\n    function changeDisplayName(string handle, string newName)external handleExists(handle) onlyHandleOwner(handle){\n        \n        require(bytes(newName).length>0, \"Empyt names not allowed\");\n\n        handleNameHashVsHandle[keccak256(abi.encodePacked(handle))].displayName = newName;\n        \n        emit NewDisplayName(handle, newName);\n    }\n    \n    /** \n    * @dev Method to change Location of Image\n    * @param handle Handle whose image location has to be changed\n    * @param newImageLocation New Image Location\n    */\n    function changeImageLocation(string handle, string newImageLocation)external handleExists(handle) onlyHandleOwner(handle){\n        \n        handleNameHashVsHandle[keccak256(abi.encodePacked(handle))].imageLocation = newImageLocation;\n        \n        emit NewImageLocation(handle, newImageLocation);\n    }\n    \n    /** \n    * @dev Method to extra data\n    * @param handle Handle whose extra data has to be changed\n    * @param peerId New Peer Id\n    */\n    function changePeerId(string handle, string peerId)external handleExists(handle) onlyHandleOwner(handle){\n        \n        handleNameHashVsHandle[keccak256(abi.encodePacked(handle))].peerId = peerId;\n        \n        emit NewPeerId(handle, peerId);\n    }\n    \n    /** \n    * @dev Method to get handle info about specific handle\n    * @param handleName The handle whose info has to be fetched\n    */\n    function getHandleInfo(string handleName)external\n     view returns(address owner, string handle, string displayName, string imageLocation, string peerId){\n        \n        bytes32 handleBytes = keccak256(abi.encodePacked(handleName));\n        \n        owner = handleNameHashVsHandle[handleBytes].handleOwner;\n        handle = handleNameHashVsHandle[handleBytes].handleName;\n        displayName = handleNameHashVsHandle[handleBytes].displayName;\n        imageLocation = handleNameHashVsHandle[handleBytes].imageLocation;\n        peerId = handleNameHashVsHandle[handleBytes].peerId;\n    }\n\n    /**\n    * @dev Method to check availability of the handle\n    * @param handle Handle whose availability has to be checked\n    */\n    function isHandleAvailable(string handle)external view returns(bool){\n        \n        return handleNameHashVsHandle[keccak256(abi.encodePacked(handle))].handleOwner == address(0);\n    }\n    \n    /** \n    * @dev Method to remove handleS\n    * @param handle Handle to be removed\n    */\n    function removeHandle(string handle)external handleExists(handle) onlyHandleOwner(handle){\n        \n        delete handleNameHashVsHandle[keccak256(abi.encodePacked(handle))];        \n        emit HandleRemoved(handle);\n    }\n}",
  "sourcePath": "/home/sameep/freelancing-projects/toptal/open baazar/wns/contracts/WNS.sol",
  "compiler": {
    "name": "solc",
    "version": "0.4.24+commit.e67f0147.Emscripten.clang"
  },
  "schemaVersion": "2.0.1",
  "updatedAt": "2018-08-29T12:49:36.099Z"
}